:100000000C9462000C948A000C948A000C948A0070
:100010000C948A000C948A000C948A000C948A0038
:100020000C948A000C948A000C948A000C94E603C9
:100030000C948A000C948A000C948A000C948A0018
:100040000C9444030C948A000C94B4030C948E0317
:100050000C948A000C948A000C948A000C948A00F8
:100060000C948A000C948A000000000023002600F3
:10007000290000000000240027002A0000000000E2
:10008000250028002B0004040404040404040202D4
:100090000202020203030303030301020408102007
:1000A0004080010204081020010204081020000012
:1000B0000008000201000003040700000000000027
:1000C0000000E70411241FBECFEFD8E0DEBFCDBF94
:1000D00011E0A0E0B1E0E0E3F1E102C005900D9293
:1000E000AC32B107D9F721E0ACE2B1E001C01D921A
:1000F000AF3FB207E1F710E0C2E6D0E004C02197BD
:10010000FE010E949008C136D107C9F70E9444053C
:100110000C9496080C9400008F929F92AF92BF921D
:10012000FF920F931F93CF93DF93F090FC012BE08E
:100130002F1508F44CC02091FE0108E512E0021BC7
:10014000110927FD1395000F111F000F111F20919A
:10015000FD01C8E8D0E0C21BD10927FDD395CC0F23
:10016000DD1FCC0FDD1F4E010D2E000CAA08BB08B1
:100170009801012E000C440B550B281939094A0926
:100180005B09DC010E941A0724EB30E040E050E0FC
:100190000E94F006820E931EA41EB51E8C169D06AC
:1001A0002CF0E801801691060CF4E4012297CC0FA4
:1001B000DD1F2FB7F8948F2D90E0FC01EE0FFF1F8D
:1001C000E80FF91FE952FE4FD283C1832FBFDF91A1
:1001D000CF911F910F91FF90BF90AF909F908F9004
:1001E000089590E0FC01E255FF4F2491FC01E65692
:1001F000FF4F3491FC01EA57FF4FE491EE23C9F021
:10020000222339F0233001F1A8F4213019F12230F2
:1002100029F1F0E0EE0FFF1FE458FF4FA591B491D4
:100220008FB7F894EC91611126C030953E233C9332
:100230008FBF08952730A9F02830C9F0243049F73E
:10024000809180008F7D03C0809180008F778093A4
:100250008000DFCF84B58F7784BDDBCF84B58F7D01
:10026000FBCF8091B0008F778093B000D2CF809188
:10027000B0008F7DF9CF3E2BDACFCF93DF9390E0A4
:10028000FC01E656FF4F24918A579F4FFC01849151
:100290008823D1F090E0880F991FFC01EE58FF4FA2
:1002A000A591B491FC01E458FF4FC591D49161111F
:1002B0000EC09FB7F8948C91E22FE0958E238C931B
:1002C0002881E223E8839FBFDF91CF9108958FB704
:1002D000F894EC91E22BEC938FBFF6CF3FB7F894F4
:1002E0008091360190913701A0913801B091390188
:1002F00026B5A89B05C02F3F19F00196A11DB11D81
:100300003FBFBA2FA92F982F8827BC01CD01620FBC
:10031000711D811D911D42E0660F771F881F991F77
:100320004A95D1F708958F929F92AF92BF92CF9244
:10033000DF92EF92FF924B015C010E946E016B0114
:100340007C010E946E016C197D098E099F09683E2F
:10035000734081059105A8F321E0821A9108A10854
:10036000B10888EEC80E83E0D81EE11CF11C811490
:100370009104A104B10429F7FF90EF90DF90CF9092
:10038000BF90AF909F908F900895AF92BF92CF9201
:10039000DF92EF92FF920F931F93CF93DF936C0145
:1003A0007B018B01040F151FEB015E01AE18BF0826
:1003B000C017D10759F06991D601ED91FC910190D8
:1003C000F081E02DC6010995892B79F7C501DF91F0
:1003D000CF911F910F91FF90EF90DF90CF90BF9042
:1003E000AF900895FC01538D448D252F30E0842F6C
:1003F00090E0821B930B541710F0CF96089501974D
:100400000895FC01918D828D981761F0A28DAE0F39
:10041000BF2FB11D5D968C91928D9F5F9F73928FC0
:1004200090E008958FEF9FEF0895FC01918D828DEC
:10043000981731F0828DE80FF11D858D90E00895B9
:100440008FEF9FEF0895FC01918D228D892F90E011
:10045000805C9F4F821B91098F73992708958AE3CF
:1004600091E00E94230221E0892B09F420E0822FF1
:10047000089580E090E0892B29F00E942F028111DD
:100480000C9400000895FC01A48DA80FB92FB11D94
:10049000A35ABF4F2C91848D90E001968F739927BA
:1004A000848FA689B7892C93A089B1898C91837098
:1004B00080648C93938D848D981306C00288F38991
:1004C000E02D80818F7D80830895EF92FF920F93BE
:1004D0001F93CF93DF93EC0181E0888F9B8D8C8DF0
:1004E00098131AC0E889F989808185FF15C09FB7E4
:1004F000F894EE89FF896083E889F98980818370A7
:10050000806480839FBF81E090E0DF91CF911F9155
:100510000F91FF90EF900895F62E0B8D10E00F5F76
:100520001F4F0F731127E02E8C8D8E110CC00FB64C
:1005300007FCFACFE889F989808185FFF5CFCE01E4
:100540000E944302F1CFEB8DEC0FFD2FF11DE35A1A
:10055000FF4FF0829FB7F8940B8FEA89FB89808167
:100560008062CFCFCF93DF93EC01888D8823B9F0E1
:10057000AA89BB89E889F9898C9185FD03C08081AE
:1005800086FD0DC00FB607FCF7CF8C9185FFF2CF2B
:10059000808185FFEDCFCE010E944302E9CFDF913C
:1005A000CF910895FC0101900020E9F73197AF0148
:1005B000481B590BBC018AE391E00C94C5018F9252
:1005C0009F92AF92BF920F931F93CF93DF93CDB7BC
:1005D000DEB7A1970FB6F894DEBF0FBECDBF19A24C
:1005E000423008F44AE08E010F5D1F4F842E912C9B
:1005F000B12CA12CA50194010E942207E62FB9017C
:10060000CA01EA30F4F4E05DD801EE938D01232BAA
:10061000242B252B79F790E080E0109719F0CD017D
:100620000E94D202A1960FB6F894DEBF0FBECDBFD6
:10063000DF91CF911F910F91BF90AF909F908F90BE
:100640000895E95CE1CFCF92DF92EF92FF92CF93D2
:10065000DF936B017C016DE28AE391E00E94650209
:10066000EC0166277727CB016C197D098E099F095C
:100670004AE00E94DF028C0F9D1FDF91CF91FF9017
:10068000EF90DF90CF9008951F920F920FB60F92C8
:1006900011242F933F938F939F93AF93BF93809198
:1006A000320190913301A0913401B0913501309124
:1006B000310123E0230F2D3758F50196A11DB11DFF
:1006C000209331018093320190933301A093340140
:1006D000B09335018091360190913701A091380196
:1006E000B09139010196A11DB11D809336019093FF
:1006F0003701A0933801B0933901BF91AF919F9119
:100700008F913F912F910F900FBE0F901F901895D2
:1007100026E8230F0296A11DB11DD2CF1F920F9282
:100720000FB60F9211242F933F934F935F936F93C4
:100730007F938F939F93AF93BF93EF93FF938AE33E
:1007400091E00E944302FF91EF91BF91AF919F9181
:100750008F917F916F915F914F913F912F910F906A
:100760000FBE0F901F9018951F920F920FB60F9209
:1007700011242F938F939F93EF93FF93E0914A015E
:10078000F0914B018081E0915001F091510182FD87
:100790001BC09081809153018F5F8F732091540112
:1007A000821741F0E0915301F0E0E65CFE4F958F37
:1007B00080935301FF91EF919F918F912F910F9013
:1007C0000FBE0F901F9018958081F4CF1F920F924B
:1007D0000FB60F9211242F933F934F935F936F9314
:1007E0007F938F939F93AF93BF93CF93DF93EF93B9
:1007F000FF9380912C01C091FB01D0E087FF24C0C2
:10080000109285001092840080912C018F5F80935C
:100810002C0180912C01082E000C990B8C179D0740
:1008200024F480912C018C30C4F18091840090914B
:100830008500049680349C4908F47AC08091840035
:1008400090918500049676C080912C01082E000CB2
:10085000990B8C179D07C4F6E0912C018E2FEE0F9B
:10086000990BFC01EE0FFF1FE80FF91FE952FE4F35
:10087000808186FFC9CFE0912C018E2FEE0F990B5E
:10088000FC01EE0FFF1FE80FF91FE952FE4F8081B8
:1008900060E08F730E94F100B7CF20918400309107
:1008A0008500E0912C018E2FEE0F990BFC01EE0FCD
:1008B000FF1FE80FF91FE952FE4F81819281820FDD
:1008C000931F9093890080938800E0912C018E2FD4
:1008D000EE0F990BFC01EE0FFF1FE80FF91FE95215
:1008E000FE4F808186FF11C0E0912C018E2FEE0F0C
:1008F000990BFC01EE0FFF1FE80FF91FE952FE4FA5
:10090000808161E08F730E94F100FF91EF91DF9190
:10091000CF91BF91AF919F918F917F916F915F9197
:100920004F913F912F910F900FBE0F901F901895F0
:1009300080E49CE990938900809388008FEF8093F6
:100940002C01E3CFCF92DF92EF92FF920F931F9390
:10095000E82FF92F05C0015011092109310961F172
:10096000908196239417B9F305C00150110921090C
:10097000310911F1908196239413F7CFC12CD12C1A
:10098000E12CF12C0AC08FEFC81AD80AE80AF80A3D
:100990000C151D052E053F0579F0808186238417EF
:1009A00091F36C2D7D2D8E2D9F2D1F910F91FF901A
:1009B000EF90DF90CF90089560E070E080E090E0ED
:1009C0001F910F91FF90EF90DF90CF9008951092BC
:1009D0003D0110923C0188EE93E0A0E0B0E08093EE
:1009E0003E0190933F01A0934001B093410184E008
:1009F00091E090933B0180933A0185EC90E09093D5
:100A000047018093460184EC90E0909349018093E4
:100A1000480180EC90E090934B0180934A0181EC77
:100A200090E090934D0180934C0182EC90E0909384
:100A30004F0180934E0186EC90E09093510180939A
:100A400050011092530110925401109255011092CE
:100A500056018091FB018C3098F491E0980F9093AF
:100A6000FB018093FC0190E0FC01EE0FFF1FE80FFB
:100A7000F91FE952FE4F88EB9BE092838183089532
:100A80008FEF8093FC010895789484B5826084BDD3
:100A900084B5816084BD85B5826085BD85B5816082
:100AA00085BD80916E00816080936E001092810000
:100AB00080918100826080938100809181008160BB
:100AC000809381008091800081608093800080917C
:100AD000B10084608093B1008091B0008160809308
:100AE000B00080917A00846080937A0080917A00CF
:100AF000826080937A0080917A00816080937A008E
:100B000080917A00806880937A001092C10061E041
:100B100089E00E943D0160E088E00E943D0161E0C3
:100B200083E00E943D018091FC018C3008F051C0AF
:100B300061E086E00E943D018091FC01282F30E0B9
:100B4000F901EE0FFF1FE20FF31FE952FE4F9081F4
:100B5000907C966090831092FD011092FE012CE033
:100B6000622F0E948408829FB001112430E020E0AF
:100B7000AB01420F531FFA01EE0FFF1FE40FF51FE9
:100B8000E952FE4F908196FD16C02F5F3F4F2C30EB
:100B9000310571F781110FC01092800082E08093BF
:100BA00081001092850010928400B19A80916F00AC
:100BB000826080936F00E091FC018E2F90E0FC0139
:100BC000EE0FFF1FE80FF91FE952FE4F808180648E
:100BD000808390E080E00E948C00E0914A01F091D7
:100BE0004B0182E08083E0914601F0914701108241
:100BF000E0914801F09149018FEC808310925201FD
:100C0000E0914E01F0914F0186E08083E0914C012C
:100C1000F0914D01808180618083E0914C01F091E1
:100C20004D01808188608083E0914C01F0914D01FD
:100C3000808180688083E0914C01F0914D0180813A
:100C40008F7D8083C3E0D0E093E2E92EF12C22EA8D
:100C5000C22E20E0D22E3EE8A32E30E0B32E43E495
:100C6000742E50E0852E50E0952E60E089E00E94C1
:100C7000F100CE010197F1F761E089E00E94F100F7
:100C8000C7010197F1F760E089E00E94F100F601E9
:100C90006491F5018491E82FF0E0EE0FFF1FE85911
:100CA000FF4F8591949100E412E42FE030E0462F4D
:100CB0000E94A204611571058105910529F06F5FFD
:100CC0007F4F8F4F9F4F9F700E948B0726E933E421
:100CD0004BE05DE30E94EF0720E030E040E05FE39F
:100CE0000E94EF070E9453077093300160932F0119
:100CF00070927C0080917A00806480937A00809169
:100D00007A0086FDFCCF80917800909179009093D5
:100D10002E0180932D0182E191E00E94D202609128
:100D20002F0170913001072E000C880B990B97FF53
:100D300046C00E9423038AE191E00E94D2026091A2
:100D40002D0170912E01072E000C880B990B97FF37
:100D50003AC00E94230388E291E00E94D20280916F
:100D60002F019091300101978436910580F58AE535
:100D700090E00E948C0080912D0190912E0161E005
:100D8000843F91400CF060E083E00E94F10068EB4A
:100D90007BE080E090E00E94930164EF71E080E0EE
:100DA00090E00E9493018114910409F45ECF0E94A7
:100DB0002F02882309F459CF0E94000056CF4AE041
:100DC0000E94DF02B8CF4AE00E94DF02C4CF90E069
:100DD00080E00E948C0060E083E00E94F100DDCFA3
:100DE000052E97FB1EF400940E94070757FD07D0BD
:100DF0000E94220707FC03D04EF40C94070750957D
:100E00004095309521953F4F4F4F5F4F08959095F6
:100E10008095709561957F4F8F4F9F4F08950E94E9
:100E20004407A59F900DB49F900DA49F800D911D28
:100E300011240895B7FF0C940F070E940F07821B1F
:100E4000930B0895A1E21A2EAA1BBB1BFD010DC036
:100E5000AA1FBB1FEE1FFF1FA217B307E407F5076A
:100E600020F0A21BB30BE40BF50B661F771F881F46
:100E7000991F1A9469F760957095809590959B01DC
:100E8000AC01BD01CF010895A29FB001B39FC00185
:100E9000A39F700D811D1124911DB29F700D811DA6
:100EA0001124911D08950E945A076894B1110C9461
:100EB000E90708950E94CE0788F09F5798F0B92F50
:100EC0009927B751B0F0E1F0660F771F881F991F7F
:100ED0001AF0BA95C9F714C0B13091F00E94E80732
:100EE000B1E008950C94E807672F782F8827B85F42
:100EF00039F0B93FCCF3869577956795B395D9F7D7
:100F00003EF490958095709561957F4F8F4F9F4FE0
:100F10000895E89409C097FB3EF4909580957095EC
:100F200061957F4F8F4F9F4F9923A9F0F92F96E935
:100F3000BB279395F695879577956795B795F111AA
:100F4000F8CFFAF4BB0F11F460FF1BC06F5F7F4F47
:100F50008F4F9F4F16C0882311F096E911C0772359
:100F600021F09EE8872F762F05C0662371F096E862
:100F7000862F70E060E02AF09A95660F771F881F31
:100F8000DAF7880F9695879597F9089557FD905849
:100F9000440F551F59F05F3F71F04795880F97FB3D
:100FA000991F61F09F3F79F08795089512161306F7
:100FB0001406551FF2CF4695F1DF08C01616170626
:100FC0001806991FF1CF869571056105089408955B
:100FD000E894BB2766277727CB0197F908950E94ED
:100FE00002080C9473080E94650838F00E946C088F
:100FF00020F0952311F00C945C080C9462081124E5
:101000000C94E9070E94C60770F3959FC1F3950FF2
:1010100050E0551F629FF001729FBB27F00DB11D7C
:10102000639FAA27F00DB11DAA1F649F6627B00D0C
:10103000A11D661F829F2227B00DA11D621F739FF5
:10104000B00DA11D621F839FA00D611D221F749F03
:101050003327A00D611D231F849F600D211D822F4A
:10106000762F6A2F11249F5750409AF0F1F0882371
:101070004AF0EE0FFF1FBB1F661F771F881F91509E
:101080005040A9F79E3F510580F00C945C080C94E9
:10109000E9075F3FE4F3983ED4F38695779567952B
:1010A000B795F795E7959F5FC1F7FE2B880F911DC8
:1010B0009695879597F9089597F99F6780E870E06E
:1010C00060E008959FEF80EC089500240A941616BE
:1010D000170618060906089500240A941216130626
:1010E000140605060895092E0394000C11F48823B4
:1010F00052F0BB0F40F4BF2B11F460FF04C06F5FD0
:101100007F4F8F4F9F4F0895991B79E004C0991F1F
:10111000961708F0961B881F7A95C9F78095089551
:10112000EE0FFF1F0590F491E02D0994F894FFCF86
:10113000000000006502C501F201B20223020102B3
:1011400015024A6172616B3A200020636D2C2043C6
:0C11500061686179613A20000D0A00001E
:00000001FF
