:100000000C9462000C948A000C948A000C948A0070
:100010000C948A000C948A000C948A000C948A0038
:100020000C948A000C948A000C948A000C948A0028
:100030000C948A000C948A000C948A000C948A0018
:100040000C94C2070C948A000C9432080C940C088F
:100050000C948A000C948A000C948A000C948A00F8
:100060000C9464080C948A0000000000240027000F
:100070002A0000000000250028002B0000000008D6
:10008000000201000003040700000000000000005F
:1000900000000000230026002900040404040404D6
:1000A0000404020202020202030303030303010227
:1000B00004081020408001020408102001020408F6
:1000C0001020C80911241FBECFEFD8E0DEBFCDBF7E
:1000D00011E0A0E0B1E0E2E0F0E202C005900D9294
:1000E000A039B107D9F723E0A0E9B1E001C01D9222
:1000F000AD31B207E1F710E0C2E6D0E004C02197CD
:10010000FE010E94F90FC136D107C9F70E942F0ADC
:100110000C94FF0F0C940000CF92DF92EF92FF92AD
:10012000CF93DF93B0911103A0E08111AB2F8091A9
:10013000120390E0880F991FAC0140575F4FC090A9
:100140001703D0901803E0901903F0901A0330E0E1
:1001500020E0FA01C591D491E881B90190E080E0F6
:10016000EB23EA130AC02F5F3F4F6C157D058E0508
:100170009F0578F36FEF7FEFCB01DF91CF91FF9079
:10018000EF90DF90CF900895833081F028F4813094
:1001900099F08230A9F008958730A9F08830C9F02D
:1001A0008430B1F4809180008F7D03C08091800005
:1001B0008F7780938000089584B58F7784BD0895EC
:1001C00084B58F7DFBCF8091B0008F778093B00096
:1001D00008958091B0008F7DF9CF1F93CF93DF9367
:1001E000282F30E0F901E458FF4F8491F901E255DE
:1001F000FF4FD491F901E656FF4FC491CC23A9F0EB
:10020000162F81110E94C400EC2FF0E0EE0FFF1FAB
:10021000EE58FF4FA591B4918FB7F894EC9111115E
:1002200008C0D095DE23DC938FBFDF91CF911F9163
:100230000895DE2BF8CFCF93DF9390E0FC01E255D9
:10024000FF4F249186569F4FFC0184918823C9F06B
:1002500090E0880F991FFC01E859FF4FA591B491D8
:10026000FC01EE58FF4FC591D49161110DC09FB7AD
:10027000F8948C91209582238C938881282328835D
:100280009FBFDF91CF910895623051F49FB7F894EA
:100290003C91822F809583238C93E8812E2BEFCF86
:1002A0008FB7F894EC912E2B2C938FBFEACF3FB7EA
:1002B000F89480914D0290914E02A0914F02B0911E
:1002C000500226B5A89B05C02F3F19F00196A11D2D
:1002D000B11D3FBFBA2FA92F982F8827BC01CD0190
:1002E000620F711D811D911D42E0660F771F881FEF
:1002F000991F4A95D1F708958F929F92AF92BF921E
:10030000CF92DF92EF92FF924B015C010E94570166
:100310006B017C010E9457016C197D098E099F09B0
:10032000683E734081059105A8F321E0821A910887
:10033000A108B10888EEC80E83E0D81EE11CF11CAC
:1003400081149104A104B10429F7FF90EF90DF908C
:10035000CF90BF90AF909F908F900895CF92DF92F3
:10036000EF92FF920F931F93CF93DF93CDB7DEB73A
:10037000C054D1400FB6F894DEBF0FBECDBF2FB72B
:10038000F8948091510290915202A0915302B09141
:1003900054022FBF40911303509114036091150331
:1003A000709116038C019D01041B150B260B370B56
:1003B000B901A801403D57406105710590F4809155
:1003C0001B03C05CDE4F0FB6F894DEBF0FBECDBF7F
:1003D000DF91CF911F910F91FF90EF90DF90CF9021
:1003E00008958093130390931403A0931503B0937F
:1003F000160310920E0310920D0310920C0310922C
:100400000B0310920A0362E080910F030E941B010C
:1004100061E070E080E090E00E947C0161E080910A
:100420000F030E941B0160E080910F030E94ED000A
:10043000809110038551823020F58BE291E1019784
:10044000F1F762E080910F030E941B0180911C0371
:1004500090E08230910538F0880F991F880F991F1E
:1004600005970197F1F7F89480E00E948C006F3FA8
:100470007F4F8F4F9F4F61F410921B03789480E061
:10048000A0CF64E170E080E090E00E947C01D9CFD1
:1004900081E00E948C006F3F7F4F8F4F9F4F61F331
:1004A0008E010F5F1F4F6E018FEBC81A8EEFD80AB7
:1004B000780180E00E948C00F70160837183828361
:1004C000938381E00E948C00F701648375838683A7
:1004D0009783F8E0EF0EF11CEC14FD0451F77894CB
:1004E00030E020E0F801C080D180E280F3804481D8
:1004F000558166817781FFEFCF16DF06EF06FF0695
:1005000031F04F3F8FEF58076807780719F41092C2
:100510001B03B5CFF90183E0F595E7958A95E1F7DF
:10052000E65FFC4F8081880FC416D506E606F70605
:1005300010F180832F5F3F4F085F1F4F2832310536
:1005400089F640910E0320910A0380910B03280F36
:100550003327331F80910C03280F311D80910D0329
:10056000820F932F911D99274817190681F681E074
:1005700080931B0326CF8160DCCF08950895DC01B2
:10058000ED91FC910190F081E02D0994AF92BF9222
:10059000CF92DF92EF92FF920F931F93CF93DF934F
:1005A0006C017B018B01040F151FEB015E01AE187E
:1005B000BF08C017D10759F06991D601ED91FC91A0
:1005C0000190F081E02DC6010995892B79F7C501CD
:1005D000DF91CF911F910F91FF90EF90DF90CF901F
:1005E000BF90AF900895FC01538D448D252F30E0CE
:1005F000842F90E0821B930B541710F0CF96089530
:1006000001970895FC01918D828D981761F0A28D5C
:10061000AE0FBF2FB11D5D968C91928D9F5F9F7322
:10062000928F90E008958FEF9FEF0895FC01918DD8
:10063000828D981731F0828DE80FF11D858D90E045
:1006400008958FEF9FEF0895FC01918D228D892FE2
:1006500090E0805C9F4F821B91098F7399270895CA
:1006600085E592E00E94240321E0892B09F420E033
:10067000822F089580E090E0892B29F00E943003BA
:1006800081110C9400000895FC01A48DA80FB92FCE
:10069000B11DA35ABF4F2C91848D90E001968F73AA
:1006A0009927848FA689B7892C93A089B1898C91C9
:1006B000837080648C93938D848D981306C0028818
:1006C000F389E02D80818F7D80830895EF92FF92E2
:1006D0000F931F93CF93DF93EC0181E0888F9B8D65
:1006E0008C8D98131AC0E889F989808185FF15C01F
:1006F0009FB7F894EE89FF896083E889F989808142
:100700008370806480839FBF81E090E0DF91CF9110
:100710001F910F91FF90EF900895F62E0B8D10E032
:100720000F5F1F4F0F731127E02E8C8D8E110CC0A1
:100730000FB607FCFACFE889F989808185FFF5CFEC
:10074000CE010E944403F1CFEB8DEC0FFD2FF11D84
:10075000E35AFF4FF0829FB7F8940B8FEA89FB8929
:1007600080818062CFCFCF93DF93EC01888D882387
:10077000B9F0AA89BB89E889F9898C9185FD03C004
:10078000808186FD0DC00FB607FCF7CF8C9185FFE9
:10079000F2CF808185FFEDCFCE010E944403E9CFE7
:1007A000DF91CF91089508952091D101260F33272D
:1007B000331F21323105ECF420911A02FC0190E044
:1007C00080E0243069F082E00895A091D101219168
:1007D000AC014F545E4FA40FB52FB11D2C93019661
:1007E000861798F38091D101680F6093D10180E062
:1007F000089581E0089510921A0281E08093190211
:100800001092F40161E082E10E94ED0061E083E179
:100810000E94ED00E9EBF0E080818E7F8083808193
:100820008D7F808388E48093B80085E48093BC004A
:100830000895CF93DF9391E09093B0018823B9F0AE
:10084000C091B800D091BA008091BC008A7B80939F
:10085000BC0060E082E10E94ED0060E083E10E9464
:10086000ED000E94FB03D093BA00C093B800DF9163
:10087000CF9108950895E091490280914802E817C8
:1008800030F4F0E0E057FE4F808190E008958FEF64
:100890009FEF089590914902809148022FEF3FEF1A
:1008A000981748F4E92FF0E0E057FE4F208130E040
:1008B0009F5F90934902C9010895809148029091E9
:1008C0004902891B990B0895CF92DF92EF92FF9214
:1008D0000F931F93CF93DF937C01CB018A0120916B
:1008E0002002222389F0EB016B01C40ED51ECC152A
:1008F000DD0569F06991D701ED91FC910190F081DE
:10090000E02DC7010995F3CF642F0E94D403C801DD
:10091000DF91CF911F910F91FF90EF90DF90CF90DB
:100920000895CF93DF931F92CDB7DEB769832091EF
:1009300020022223F9F020914602203258F021E0D3
:1009400030E0FC013383228390E080E00F90DF9160
:10095000CF91089580914702E82FF0E0EF5DFD4FC1
:10096000998190838F5F809347028093460281E054
:1009700090E0ECCF61E0CE0101960E94D403F7CF66
:10098000CF92DF92EF92FF920F931F93CF93DF935B
:10099000FC01C48121E020932002C0934102109207
:1009A0004702109246028385682B82EF92E00E94F4
:1009B0009104D0914602D13208F092C00E945701B2
:1009C0006B017C0180911A02811165C082E08093E5
:1009D0001A0281E0809319028FEF8093180210921F
:1009E0001702D0931602A1E2B2E0E6EFF1E080E058
:1009F000D81385C01092F5018091F501CC0FC82B5A
:100A0000C093F5018091F401813009F07CC010920F
:100A1000F4010E9457016B017C018091F5018093E4
:100A2000BB0080911C0290911D02A0911E02B0910A
:100A30001F02892B8A2B8B2B99F00E945701009162
:100A40001C0210911D0220911E0230911F026C1990
:100A50007D098E099F090617170728073907E0F156
:100A60008091BC0083FDD9CF85EC8093BC000E94AF
:100A700057016B017C0180911A02823009F445C054
:100A8000809118028F3F61F180911802803241F10C
:100A90008091180225C080911C0290911D02A091A6
:100AA0001E02B0911F02892B8A2B8B2B09F48ACF4F
:100AB0000E94570100911C0210911D0220911E02FC
:100AC00030911F026C197D098E099F0906171707BF
:100AD0002807390708F076CF80911B020E9419047D
:100AE000109247021092460210922002DF91CF919D
:100AF0001F910F91FF90EF90DF90CF9008959D91FF
:100B000091938F5F75CF85EEB0CF80911C0290914D
:100B10001D02A0911E02B0911F02892B8A2B8B2BE4
:100B200009F4A9CF0E94570100911C0210911D02E7
:100B300020911E0230911F026C197D098E099F09B8
:100B4000061717072807390708F095CFC5CF90E09B
:100B500080E008950F931F93CF938C01C62F0E94BE
:100B6000C0046C2F6460C8010E94C0046C2F6B7FAE
:100B7000C8010E94C00483EC90E00197F1F7CF9187
:100B80001F910F9108950F931F93CF93DF938C01C3
:100B9000D62FC42F607F642B0E94AA0580E1D89FC6
:100BA000B00111246C2BC801DF91CF911F910F91DF
:100BB0000C94AA05CF93DF93CDB7DEB728970FB675
:100BC000F894DEBF0FBECDBF98E0E0E0F1E0DE01BB
:100BD000119601900D929A95E1F79091060398175E
:100BE00008F48FEF90E0880F991F21E030E02C0F80
:100BF0003D1F820F931FFC016081606840E08EEF13
:100C000092E028960FB6F894DEBF0FBECDBFDF91FD
:100C1000CF910C94C30541E00E94C30581E090E0B0
:100C20000895FB0101900020E9F73197AF01461BC1
:100C3000570BDC01ED91FC910280F381E02D0994CA
:100C40008F929F92AF92BF92EF92FF920F931F935A
:100C5000CF93DF93CDB7DEB7A1970FB6F894DEBF81
:100C60000FBECDBF7C01FA01CB0119A2223008F4DE
:100C70002AE08E010F5D1F4F822E912CB12CA12CEA
:100C8000BF01A50194010E94D70FF901CA016A3082
:100C90000CF5605DD8016E938D01232B242B252B41
:100CA00079F790E080E0109721F0BD01C7010E9424
:100CB0001106A1960FB6F894DEBF0FBECDBFDF912F
:100CC000CF911F910F91FF90EF90BF90AF909F90A9
:100CD0008F900895695CDECFCF92DF92EF92FF9202
:100CE0000F931F93CF93DF936B01770FEE08FF08ED
:100CF000F7FE1BC0EC016DE20E94BF028C0144278D
:100D00005527BA014C195D096E097F092AE0CE0109
:100D10000E942006800F911FDF91CF911F910F91AC
:100D2000FF90EF90DF90CF9008952AE0B701A601E1
:100D3000DF91CF911F910F91FF90EF90DF90CF90B7
:100D40000C9420062F923F924F925F926F927F9267
:100D50008F929F92AF92BF92CF92DF92EF92FF92CB
:100D60001F93CF93DF93EC016A017B01722EAB01DD
:100D70009601CB01B6010E94D20F68E371E08111A8
:100D800026C046015701E894B7F82FEF3FEF4FE731
:100D90005FE7C501B4010E94D20F81110CC02FEF93
:100DA0003FEF4FE75FE7C501B4010E94010E6CE31E
:100DB00071E0181664F02FEF3FEF4FE75FE4C701D3
:100DC000B6010E94600F1816B4F460E471E0CE0121
:100DD000DF91CF911F91FF90EF90DF90CF90BF9068
:100DE000AF909F908F907F906F905F904F903F90CB
:100DF0002F900C9411062FEF3FEF4FE75FECC701E8
:100E0000B6010E94010E87FDE0CF20E030E0A9018D
:100E1000C701B6010E94010E312C212C87FF09C0A9
:100E20006DE2CE010E94BF021C01F7FAF094F7F8C0
:100E3000F09410E060E070E080E09FE3711641F014
:100E400020E030E040E251E40E94060E1F5FF6CF42
:100E5000A70196010E94950D2B013C010E947F0E77
:100E60004B015C012AE0BC01A401CE010E942006D6
:100E70007C01E20CF31C1123C1F1C501B4010E94F5
:100E8000AE0E9B01AC01C301B2010E94940D4B0157
:100E90005C016EE2CE010E94BF02E80EF91E115005
:100EA00020F120E030E040E251E4C501B4010E94AD
:100EB000650F2B013C010E947F0E4B01B12CA12C30
:100EC0002AE0B501A401CE010E942006E80EF91E19
:100ED000C501B4010E94AE0E9B01AC01C301B20179
:100EE0000E94940D4B015C01DACFC701DF91CF91D5
:100EF0001F91FF90EF90DF90CF90BF90AF909F90A9
:100F00008F907F906F905F904F903F902F900895BB
:100F10000C94110685ED8093BC0080911C02909189
:100F20001D02A0911E02B0911F020796A11DB11DC6
:100F300023E0B695A795979587952A95D1F72091A7
:100F4000BC0024FD03C010921A02089540911C02B7
:100F500050911D0260911E0270911F02452B462B7D
:100F6000472B69F30097A105B10541F02AE22A95C4
:100F7000F1F700C00197A109B109E1CF80911B02EF
:100F80000C9419041F920F920FB60F9211242F93F5
:100F90003F938F939F93AF93BF9380915102909112
:100FA0005202A0915302B091540230914C0223E0BE
:100FB000230F2D3758F50196A11DB11D20934C022A
:100FC0008093510290935202A0935302B093540223
:100FD00080914D0290914E02A0914F02B09150022B
:100FE0000196A11DB11D80934D0290934E02A093D6
:100FF0004F02B0935002BF91AF919F918F913F915B
:101000002F910F900FBE0F901F90189526E8230F79
:101010000296A11DB11DD2CF1F920F920FB60F9253
:1010200011242F933F934F935F936F937F938F93ED
:101030009F93AF93BF93EF93FF9385E592E00E9458
:101040004403FF91EF91BF91AF919F918F917F9159
:101050006F915F914F913F912F910F900FBE0F9025
:101060001F9018951F920F920FB60F9211242F9375
:101070008F939F93EF93FF93E0916502F091660247
:101080008081E0916B02F0916C0282FD1BC0908127
:1010900080916E028F5F8F7320916F02821741F0F3
:1010A000E0916E02F0E0EB5AFD4F958F80936E0257
:1010B000FF91EF919F918F912F910F900FBE0F9005
:1010C0001F9018958081F4CF1F920F920FB60F9248
:1010D00011242F933F934F935F936F937F938F933D
:1010E0009F93AF93BF93EF93FF938091B900887F55
:1010F000803609F44AC0F0F5883209F4A7C018F523
:10110000803109F49BC0B8F4882309F4F9C0883011
:1011100009F494C0FF91EF91BF91AF919F918F918E
:101120007F916F915F914F913F912F910F900FBEE3
:101130000F901F901895883109F488C0803251F7BC
:101140008093180214C0803409F49DC040F48033A9
:10115000B9F38833F9F68093180285ECB0C0803576
:1011600009F485C0883509F496C0883499F60E9440
:101170008A07D0CF883909F48CC038F5883729F030
:1011800050F4883611F0803729F683E080931A02F4
:101190001092F30157C0883809F47BC0803919F0E8
:1011A000803809F0B7CF8091F301803208F071C028
:1011B000E091F30181E08E0F8093F3018091BB00F9
:1011C000F0E0ED52FE4F80833DC0803B39F0E0F40B
:1011D000803A09F479C0883A09F09CCF84E0809382
:1011E0001A021092D2011092D101E0914402F091C2
:1011F000450209958091D10181110FC081E0809352
:10120000D1011092B10109C0803C09F4A6CF883CFD
:1012100009F4A3CF883B09F07DCFE091D20181E0B2
:101220008E0F8093D201F0E0EF54FE4F80818093C7
:10123000BB009091D2018091D10129C08091F5012C
:101240008093BB0085EC8093BC0064CF9091170223
:1012500080911602981758F5E091170281E08E0FE1
:1012600080931702F0E0EA50FE4F8081E9CFE091D1
:10127000170281E08E0F809317028091BB00F0E08F
:10128000EA50FE4F808390911702809116029817C2
:10129000C8F285E8D8CFE091170281E08E0F8093E5
:1012A00017028091BB00F0E0EA50FE4F80838091EE
:1012B000190281115CCF81E08093F40184EA80936C
:1012C000BC0010921A0226CF85EC8093BC001092CD
:1012D0001A028091F301803230F4E091F301F0E0E2
:1012E000ED52FE4F10826091F30170E0E0914202F6
:1012F000F091430283ED91E009951092F3010ACF3A
:101300001092180234CFCF92DF92EF92FF920F9398
:101310001F93E82FF92F05C0015011092109310948
:1013200061F1908196239417B9F305C0015011091A
:101330002109310911F1908196239413F7CFC12C23
:10134000D12CE12CF12C0AC08FEFC81AD80AE80A78
:10135000F80A0C151D052E053F0579F080818623BE
:10136000841791F36C2D7D2D8E2D9F2D1F910F9144
:10137000FF90EF90DF90CF90089560E070E080E004
:1013800090E01F910F91FF90EF90DF90CF90089524
:10139000E5E5F2E01382128288EE93E0A0E0B0E08F
:1013A00084839583A683B7832CE031E03183208347
:1013B00025EC30E03587248724EC30E0378726871A
:1013C00020EC30E0318B208B21EC30E0338B228B12
:1013D00022EC30E0358B248B26EC30E0378B268BEB
:1013E000118E128E138E148EE2EFF2E013821282AF
:1013F00084839583A683B7838EE191E09183808374
:10140000AAE0B3E082E015968C93159796E11696C4
:101410009C931697E0EBF0E0E4911796EC93179706
:10142000ECE9F0E0E4911896EC93189740E85EE35D
:1014300060E070E01D964D935D936D937C935097A3
:10144000EEEFF2E01382128220E331E03183208359
:1014500097E2948390E19187828713860895CF93D2
:10146000DF9300D01F92CDB7DEB7789484B5826049
:1014700084BD84B5816084BD85B5826085BD85B538
:10148000816085BD80916E00816080936E001092B6
:101490008100809181008260809381008091810031
:1014A00081608093810080918000816080938000C2
:1014B0008091B10084608093B1008091B000816020
:1014C0008093B00080917A00846080937A0080914C
:1014D0007A00826080937A0080917A0081608093A4
:1014E0007A0080917A00806880937A001092C1001F
:1014F00061E089E00E941B0160E088E00E941B011E
:1015000060E087E00E941B0161E083E00E941B0114
:1015100061E084E00E941B0162E080910F030E9461
:101520001B012FB7F8948091510290915202A09123
:101530005302B09154022FBF805D9740A109B109B9
:101540008093130390931403A0931503B093160391
:1015500087E380931C031092490210924802109274
:101560004702109246020E94FB038DEB92E090939B
:101570004502809344028EEB92E090934302809365
:1015800042021092030380910803823018F098E021
:10159000909303038093060362E370E080E090E0A1
:1015A0000E947C01609109038EEF92E00E94C004CA
:1015B00068EE73E080E090E00E947C0160E38EEFD3
:1015C00092E00E94AA058BE496E40197F1F760E3AC
:1015D0008EEF92E00E94AA058BE496E40197F1F762
:1015E00060E38EEF92E00E94AA0583E592E0019706
:1015F000F1F760E28EEF92E00E94AA05609103038A
:10160000606240E08EEF92E00E94C30584E0809328
:10161000040340E06CE08EEF92E00E94C30540E0DE
:1016200061E08EEF92E00E94C3058BE39FE101979A
:10163000F1F712E01093050340E066E08EEF92E0D0
:101640000E94C30540E062E08EEF92E00E94C30575
:10165000EBE3FFE13197F1F788E08093090360E065
:101660008EEF92E00E94C004E0916502F091660264
:101670001083E0916102F09162021082E0916302B6
:10168000F09164028FEC808310926D02E091690208
:10169000F0916A0286E08083E0916702F09168022F
:1016A000808180618083E0916702F091680280818F
:1016B00088608083E0916702F09168028081806891
:1016C0008083E0916702F091680280818F7D808342
:1016D00073E0272E312CAA24AA94BA2C6BE3862E11
:1016E0006FE1962E60E089E00E94ED00C101019754
:1016F000F1F761E089E00E94ED0083E290E001975C
:10170000F1F760E089E00E94ED00E6EBF0E0649123
:10171000E2EAF0E08491E82FF0E0EE0FFF1FE057DF
:10172000FF4F8591949100E315E720E030E0462FCC
:101730000E948309611571058105910529F06F5F8C
:101740007F4F8F4F9F4F9F708B019C010556110952
:10175000210931090B3C14472105310508F043C02C
:101760000E94B00E26E933E44BE05DE30E94650F72
:1017700020E030E040E05FE30E94650F0E94780EB9
:1017800070934B0260934A02E3E8F0E08491E5EB4A
:10179000F0E00491E1EAF0E01491112349F18111A4
:1017A0000E94C400E12FF0E0EE0FFF1FE057FF4F53
:1017B000A591B4918C91082381E009F480E0082F71
:1017C0000E94AE01882341F0809110038C3009F40F
:1017D00071C080F48B3039F1C12CD12C20ECE22E79
:1017E0002FE7F22E4AC0B0924B02A0924A02CCCF11
:1017F00000E0E6CF8551823078F710910C03612F1D
:1018000070E0762F662766277F7780910D03682B1F
:1018100090E080E00E94AE0E2DEC3CEC4CEC5DE3E1
:101820000E94650F63C060910C0370E090E080E05F
:101830000E94AE0E6B017C0110910D0317FF0AC0D0
:10184000AC019B0160E070E080E89FEB0E94940D8A
:101850006B017C011F70612F70E090E080E00E94BE
:10186000B00E2DEC3CEC4CEC5DE30E94650FA70143
:1018700096010E94950D6B017C010E94AE01182F0C
:10188000412C512C80EC682E8FE7782E112309F41F
:1018900066C0809110038B3030F08D3080F185511F
:1018A000823008F428C1412C512C90EC692E9FE71E
:1018B000792E43C010910C03612F70E090E080E01E
:1018C0000E94AE0E6B017C0160910D036F7070E0A1
:1018D00090E080E00E94B00E2DEC3CEC4CEC5DE31F
:1018E0000E94650FA70196010E94950D6B017C0176
:1018F00017FFC3CFF7FAF094F7F8F094BECF6091DA
:101900000B0370E090E080E00E94B00E2DEC3CEC08
:101910004CEC5DE30E94650F2B013C0160910A03D2
:1019200070E090E080E00E94B00E9B01AC01C3012A
:10193000B2010E94950D2B013C01A7019601C70140
:10194000B6010E94D20F10E0811109C0A3019201DB
:10195000C301B2010E94D20F811101C011E0F02F2A
:10196000F170F983602F83E00E94ED0080914A02BC
:1019700090914B02019761E00A9708F060E084E0E3
:101980000E94ED0040E061E08EEF92E00E94C3050E
:10199000C4010197F1F780E00E94DA056FE571E07C
:1019A0001123E1F065E571E08EEF92E00E94880777
:1019B00021E0B701A6018EEF92E00E94A20668E541
:1019C00071E08EEF92E00E94880720E0B301A2014F
:1019D0008EEF92E00E94A2066DE571E08EEF92E03C
:1019E0000E94880781E00E94DA0569E671E08EEFC7
:1019F00092E00E948807498164E471E0411102C0CD
:101A00006AE471E08EEF92E00E9488076CE671E074
:101A10008EEF92E00E94880760914A0270914B021B
:101A2000161617060CF079C08EEF92E00E946C0635
:101A300063E871E0112309F441C062E771E085E5D4
:101A400092E00E94880765E571E085E592E00E94DA
:101A5000880721E0B701A60185E592E00E94A20671
:101A600064E771E085E592E00E94880720E0B30119
:101A7000A20185E592E00E94A20668E771E085E593
:101A800092E00E94880760914A0270914B0285E5BE
:101A900092E00E946C066CE771E085E592E00E949E
:101AA0008807898161E571E0811102C063E571E019
:101AB00085E592E00E9488076DE871E085E592E097
:101AC0000E94110660E871E085E592E00E9411062F
:101AD00060ED77E080E090E00E947C0180E090E0A3
:101AE000892B09F4FFCD0E943003882309F4F6CD39
:101AF0000E940000F3CD60910A0370910B037627DA
:101B00006727762790E080E00E94AE0E2DEC3CEC3B
:101B10004CEC5DE30E94650F0ECF60E771E08EEF45
:101B200092E00E94880784CF5058BB27AA270E94C2
:101B3000AC0D0C94260F0E94180F38F00E941F0F56
:101B400020F039F49F3F19F426F40C94150F0EF48D
:101B5000E095E7FB0C940F0FE92F0E94370F58F325
:101B6000BA17620773078407950720F079F4A6F582
:101B70000C94590F0EF4E0950B2EBA2FA02D0B01EB
:101B8000B90190010C01CA01A0011124FF27591BC2
:101B900099F0593F50F4503E68F11A16F040A22FC8
:101BA000232F342F4427585FF3CF46953795279539
:101BB000A795F0405395C9F77EF41F16BA0B620B38
:101BC000730B840BBAF09150A1F0FF0FBB1F661F7F
:101BD000771F881FC2F70EC0BA0F621F731F841FC2
:101BE00048F4879577956795B795F7959E3F08F0E8
:101BF000B0CF9395880F08F09927EE0F97958795AA
:101C000008950E94EB0E08F481E008950E941A0ED8
:101C10000C94260F0E941F0F58F00E94180F40F0DE
:101C200029F45F3F29F00C940F0F51110C945A0FB7
:101C30000C94150F0E94370F68F39923B1F35523C5
:101C400091F3951B550BBB27AA27621773078407CF
:101C500038F09F5F5F4F220F331F441FAA1FA9F365
:101C600035D00E2E3AF0E0E832D091505040E69553
:101C7000001CCAF72BD0FE2F29D0660F771F881FB4
:101C8000BB1F261737074807AB07B0E809F0BB0BA7
:101C9000802DBF01FF2793585F4F3AF09E3F5105BB
:101CA00078F00C940F0F0C945A0F5F3FE4F3983EBA
:101CB000D4F3869577956795B795F7959F5FC9F7A4
:101CC000880F911D9695879597F90895E1E0660F25
:101CD000771F881FBB1F621773078407BA0720F09E
:101CE000621B730B840BBA0BEE1F88F7E095089507
:101CF0000E947F0E6894B1110C945A0F08950E94AF
:101D00003F0F88F09F5798F0B92F9927B751B0F03F
:101D1000E1F0660F771F881F991F1AF0BA95C9F76F
:101D200014C0B13091F00E94590FB1E008950C94A5
:101D3000590F672F782F8827B85F39F0B93FCCF358
:101D4000869577956795B395D9F73EF490958095EC
:101D5000709561957F4F8F4F9F4F0895E89409C00C
:101D600097FB3EF490958095709561957F4F8F4FCE
:101D70009F4F9923A9F0F92F96E9BB279395F695E4
:101D8000879577956795B795F111F8CFFAF4BB0F62
:101D900011F460FF1BC06F5F7F4F8F4F9F4F16C0C6
:101DA000882311F096E911C0772321F09EE8872F50
:101DB000762F05C0662371F096E8862F70E060E00C
:101DC0002AF09A95660F771F881FDAF7880F969585
:101DD000879597F90895990F0008550FAA0BE0E829
:101DE000FEEF16161706E807F907C0F012161306DD
:101DF000E407F50798F0621B730B840B950B39F41D
:101E00000A2661F0232B242B252B21F408950A2682
:101E100009F4A140A6958FEF811D811D089597F9C2
:101E20009F6780E870E060E008959FEF80EC089580
:101E300000240A94161617061806090608950024A9
:101E40000A9412161306140605060895092E039423
:101E5000000C11F4882352F0BB0F40F4BF2B11F497
:101E600060FF04C06F5F7F4F8F4F9F4F089557FDF6
:101E70009058440F551F59F05F3F71F04795880FF8
:101E800097FB991F61F09F3F79F08795089512168F
:101E900013061406551FF2CF4695F1DF08C016163B
:101EA00017061806991FF1CF8695710561050894EC
:101EB0000895E894BB2766277727CB0197F9089503
:101EC0000E94EB0E08F48FEF08950E94780F0C9497
:101ED000260F0E94180F38F00E941F0F20F0952344
:101EE00011F00C940F0F0C94150F11240C945A0F31
:101EF0000E94370F70F3959FC1F3950F50E0551F67
:101F0000629FF001729FBB27F00DB11D639FAA274E
:101F1000F00DB11DAA1F649F6627B00DA11D661F9D
:101F2000829F2227B00DA11D621F739FB00DA11DBE
:101F3000621F839FA00D611D221F749F3327A00D78
:101F4000611D231F849F600D211D822F762F6A2F14
:101F500011249F5750409AF0F1F088234AF0EE0F79
:101F6000FF1FBB1F661F771F881F91505040A9F7A6
:101F70009E3F510580F00C940F0F0C945A0F5F3F59
:101F8000E4F3983ED4F3869577956795B795F795E2
:101F9000E7959F5FC1F7FE2B880F911D969587955A
:101FA00097F908950E94EB0E880B990B0895A1E212
:101FB0001A2EAA1BBB1BFD010DC0AA1FBB1FEE1FC3
:101FC000FF1FA217B307E407F50720F0A21BB30B0E
:101FD000E40BF50B661F771F881F991F1A9469F78A
:101FE00060957095809590959B01AC01BD01CF01E6
:101FF0000895EE0FFF1F0590F491E02D0994F894D9
:02200000FFCF10
:102002000000400014005400000000006603C602F5
:10201200F302B30324030203160300000000910439
:102022006404A7053A045D044A043B04000000006E
:102032000B06C602A705D3036E616E00696E6600C9
:102042006F76660047656C617000546572616E67F9
:102052000031003000543A004320483A0025004441
:102062004854204572726F72004C3A0020443A0084
:1020720058003C002C483A002C4A3A002C473A00BF
:102082000D0A003C4448543A4552524F523E000019
:00000001FF
