:100000000C9462000C948A000C948A000C948A0070
:100010000C948A000C948A000C948A000C948A0038
:100020000C948A000C948A000C948A000C948A0028
:100030000C948A000C948A000C948A000C948A0018
:100040000C946F070C948A000C94DF070C94B9078A
:100050000C948A000C948A000C948A000C948A00F8
:100060000C9411080C948A00000000002400270062
:100070002A0000000000250028002B0000000008D6
:10008000000201000003040700000000000000005F
:1000900000000000230026002900040404040404D6
:1000A0000404020202020202030303030303010227
:1000B00004081020408001020408102001020408F6
:1000C0001020710911241FBECFEFD8E0DEBFCDBFD5
:1000D00011E0A0E0B1E0E2E9FEE102C005900D927E
:1000E000A839B107D9F723E0A8E9B1E001C01D9212
:1000F000A030B207E1F710E0C2E6D0E004C02197DB
:10010000FE010E94410FC136D107C9F70E94D809EC
:100110000C94470F0C940000CF92DF92EF92FF9265
:10012000CF93DF93B091F402A0E08111AB2F8091C7
:10013000F50290E0880F991FAC0140575F4FC090C7
:10014000FA02D090FB02E090FC02F090FD0230E059
:1001500020E0FA01C591D491E881B90190E080E0F6
:10016000EB23EA130AC02F5F3F4F6C157D058E0508
:100170009F0578F36FEF7FEFCB01DF91CF91FF9079
:10018000EF90DF90CF900895833081F028F4813094
:1001900099F08230A9F008958730A9F08830C9F02D
:1001A0008430B1F4809180008F7D03C08091800005
:1001B0008F7780938000089584B58F7784BD0895EC
:1001C00084B58F7DFBCF8091B0008F778093B00096
:1001D00008958091B0008F7DF9CF1F93CF93DF9367
:1001E000282F30E0F901E458FF4F8491F901E255DE
:1001F000FF4FD491F901E656FF4FC491CC23A9F0EB
:10020000162F81110E94C400EC2FF0E0EE0FFF1FAB
:10021000EE58FF4FA591B4918FB7F894EC9111115E
:1002200008C0D095DE23DC938FBFDF91CF911F9163
:100230000895DE2BF8CFCF93DF9390E0FC01E255D9
:10024000FF4F249186569F4FFC0184918823C9F06B
:1002500090E0880F991FFC01E859FF4FA591B491D8
:10026000FC01EE58FF4FC591D49161110DC09FB7AD
:10027000F8948C91209582238C938881282328835D
:100280009FBFDF91CF910895623051F49FB7F894EA
:100290003C91822F809583238C93E8812E2BEFCF86
:1002A0008FB7F894EC912E2B2C938FBFEACF3FB7EA
:1002B000F8948091300290913102A0913202B09175
:1002C000330226B5A89B05C02F3F19F00196A11D4A
:1002D000B11D3FBFBA2FA92F982F8827BC01CD0190
:1002E000620F711D811D911D42E0660F771F881FEF
:1002F000991F4A95D1F708958F929F92AF92BF921E
:10030000CF92DF92EF92FF924B015C010E94570166
:100310006B017C010E9457016C197D098E099F09B0
:10032000683E734081059105A8F321E0821A910887
:10033000A108B10888EEC80E83E0D81EE11CF11CAC
:1003400081149104A104B10429F7FF90EF90DF908C
:10035000CF90BF90AF909F908F900895CF92DF92F3
:10036000EF92FF920F931F93CF93DF93CDB7DEB73A
:10037000C054D1400FB6F894DEBF0FBECDBF2FB72B
:10038000F8948091340290913502A0913602B09198
:1003900037022FBF4091F6025091F7026091F802A8
:1003A0007091F9028C019D01041B150B260B370B74
:1003B000B901A801403D57406105710590F4809155
:1003C000FE02C05CDE4F0FB6F894DEBF0FBECDBF9D
:1003D000DF91CF911F910F91FF90EF90DF90CF9021
:1003E00008958093F6029093F702A093F802B093D9
:1003F000F9021092F1021092F0021092EF021092A4
:10040000EE021092ED0262E08091F2020E941B0166
:1004100061E070E080E090E00E947C0161E080910A
:10042000F2020E941B0160E08091F2020E94ED0046
:100430008091F3028551823020F58BE291E10197A2
:10044000F1F762E08091F2020E941B018091FF02AD
:1004500090E08230910538F0880F991F880F991F1E
:1004600005970197F1F7F89480E00E948C006F3FA8
:100470007F4F8F4F9F4F61F41092FE02789480E07F
:10048000A0CF64E170E080E090E00E947C01D9CFD1
:1004900081E00E948C006F3F7F4F8F4F9F4F61F331
:1004A0008E010F5F1F4F6E018FEBC81A8EEFD80AB7
:1004B000780180E00E948C00F70160837183828361
:1004C000938381E00E948C00F701648375838683A7
:1004D0009783F8E0EF0EF11CEC14FD0451F77894CB
:1004E00030E020E0F801C080D180E280F3804481D8
:1004F000558166817781FFEFCF16DF06EF06FF0695
:1005000031F04F3F8FEF58076807780719F41092C2
:10051000FE02B5CFF90183E0F595E7958A95E1F7FD
:10052000E351FD4F8081880FC416D506E606F70615
:1005300010F180832F5F3F4F085F1F4F2832310536
:1005400089F64091F1022091ED028091EE02280F90
:100550003327331F8091EF02280F311D8091F00265
:10056000820F932F911D99274817190681F681E074
:100570008093FE0226CF8160DCCFAF92BF92CF92F4
:10058000DF92EF92FF920F931F93CF93DF936C0153
:100590007B018B01040F151FEB015E01AE18BF0834
:1005A000C017D10759F06991D601ED91FC910190E6
:1005B000F081E02DC6010995892B79F7C501DF91FE
:1005C000CF911F910F91FF90EF90DF90CF90BF9050
:1005D000AF900895FC01538D448D252F30E0842F7A
:1005E00090E0821B930B541710F0CF96089501975B
:1005F0000895FC01918D828D981761F0A28DAE0F48
:10060000BF2FB11D5D968C91928D9F5F9F73928FCE
:1006100090E008958FEF9FEF0895FC01918D828DFA
:10062000981731F0828DE80FF11D858D90E00895C7
:100630008FEF9FEF0895FC01918D228D892F90E01F
:10064000805C9F4F821B91098F739927089588E3DF
:1006500092E00E941B0321E0892B09F420E0822F05
:10066000089580E090E0892B29F00E9427038111F2
:100670000C9400000895FC01A48DA80FB92FB11DA2
:10068000A35ABF4F2C91848D90E001968F739927C8
:10069000848FA689B7892C93A089B1898C918370A6
:1006A00080648C93938D848D981306C00288F3899F
:1006B000E02D80818F7D80830895EF92FF920F93CC
:1006C0001F93CF93DF93EC0181E0888F9B8D8C8DFE
:1006D00098131AC0E889F989808185FF15C09FB7F2
:1006E000F894EE89FF896083E889F98980818370B5
:1006F000806480839FBF81E090E0DF91CF911F9164
:100700000F91FF90EF900895F62E0B8D10E00F5F84
:100710001F4F0F731127E02E8C8D8E110CC00FB65A
:1007200007FCFACFE889F989808185FFF5CFCE01F2
:100730000E943B03F1CFEB8DEC0FFD2FF11DE35A2F
:10074000FF4FF0829FB7F8940B8FEA89FB89808175
:100750008062CFCFCF93DF93EC01888D8823B9F0EF
:10076000AA89BB89E889F9898C9185FD03C08081BC
:1007700086FD0DC00FB607FCF7CF8C9185FFF2CF39
:10078000808185FFEDCFCE010E943B03E9CFDF9151
:10079000CF91089508951F93CF93DF93C1E0C09345
:1007A0009901882399F1D091B8001091BA008091F5
:1007B000BC008A7B8093BC0060E082E10E94ED0077
:1007C00060E083E10E94ED0010920302C0930202F8
:1007D0001092DD0161E082E10E94ED0061E083E1C1
:1007E0000E94ED008091B9008E7F8093B9008091C6
:1007F000B9008D7F8093B90088E48093B80085E4C8
:100800008093BC001093BA00D093B800DF91CF91D1
:100810001F9108952091BA01260F3327331F2132EB
:100820003105ECF420910302FC0190E080E02430DB
:1008300069F082E00895A091BA012191AC01465679
:100840005E4FA40FB52FB11D2C930196861798F318
:100850008091BA01680F6093BA0180E0089581E049
:10086000089508958FEF9FEF08958FEF9FEF0895FC
:100870008091980190E09195819591090895CF928A
:10088000DF92EF92FF920F931F93CF93DF937C0140
:10089000CB018A0120910902222389F0EB016B012F
:1008A000C40ED51ECC15DD0569F06991D701ED9117
:1008B000FC910190F081E02DC7010995F3CF642FE1
:1008C0000E940A04C801DF91CF911F910F91FF9000
:1008D000EF90DF90CF900895CF93DF931F92CDB725
:1008E000DEB76983209109022223F9F020912C02BE
:1008F000203258F021E030E0FC013383228390E085
:1009000080E00F90DF91CF91089580910A02E82F47
:10091000F0E0E55FFD4F998190838F5F80930A023D
:1009200080932C0281E090E0ECCF61E0CE01019653
:100930000E940A04F7CFCF92DF92EF92FF920F93BB
:100940001F93CF93DF93FC01C48121E02093090220
:10095000C0932B0210920A0210922C028385682BFE
:1009600085ED92E00E946C04D0912C02D13208F007
:1009700092C00E9457016B017C018091030281119A
:1009800065C082E08093030281E0809302028FEFD2
:100990008093010210920002D093FF01ABE0B2E01D
:1009A000EFEDF1E080E0D81385C01092DE01809178
:1009B000DE01CC0FC82BC093DE018091DD018130B8
:1009C00009F07CC01092DD010E9457016B017C018F
:1009D0008091DE018093BB00809105029091060218
:1009E000A0910702B0910802892B8A2B8B2B99F0DA
:1009F0000E94570100910502109106022091070202
:100A0000309108026C197D098E099F090617170796
:100A100028073907E0F18091BC0083FDD9CF85EC30
:100A20008093BC000E9457016B017C0180910302FE
:100A3000823009F445C0809101028F3F61F18091BD
:100A40000102803241F18091010225C080910502AE
:100A500090910602A0910702B0910802892B8A2B7F
:100A60008B2B09F48ACF0E94570100910502109147
:100A7000060220910702309108026C197D098E0947
:100A80009F09061717072807390708F076CF8091C6
:100A900004020E94CB0310920A0210922C021092C0
:100AA0000902DF91CF911F910F91FF90EF90DF909E
:100AB000CF9008959D9191938F5F75CF85EEB0CFC4
:100AC0008091050290910602A0910702B091080260
:100AD000892B8A2B8B2B09F4A9CF0E9457010091F7
:100AE00005021091060220910702309108026C194C
:100AF0007D098E099F09061717072807390708F08F
:100B000095CFC5CF90E080E008950F931F93CF93CA
:100B10008C01C62F0E949B046C2F6460C8010E9448
:100B20009B046C2F6B7FC8010E949B0483EC90E0B8
:100B30000197F1F7CF911F910F9108950F931F9394
:100B4000CF93DF938C01D62FC42F607F642B0E943C
:100B5000850580E1D89FB00111246C2BC801DF917D
:100B6000CF911F910F910C948505CF93DF93CDB753
:100B7000DEB728970FB6F894DEBF0FBECDBF98E062
:100B8000E0E0F1E0DE01119601900D929A95E1F717
:100B90009091E902981708F48FEF90E0880F991F61
:100BA00021E030E02C0F3D1F820F931FFC0160817C
:100BB000606840E081EE92E028960FB6F894DEBFC0
:100BC0000FBECDBFDF91CF910C949E0541E00E94F6
:100BD0009E0581E090E00895FB0101900020E9F777
:100BE0003197AF01461B570BDC01ED91FC91028060
:100BF000F381E02D09948F929F92AF92BF92EF9272
:100C0000FF920F931F93CF93DF93CDB7DEB7A197DA
:100C10000FB6F894DEBF0FBECDBF7C01FA01CB0149
:100C200019A2223008F42AE08E010F5D1F4F822E98
:100C3000912CB12CA12CBF01A50194010E941F0F82
:100C4000F901CA016A300CF5605DD8016E938D011F
:100C5000232B242B252B79F790E080E0109721F0AF
:100C6000BD01C7010E94EC05A1960FB6F894DEBF46
:100C70000FBECDBFDF91CF911F910F91FF90EF90ED
:100C8000BF90AF909F908F900895695CDECF2F92B8
:100C90003F924F925F926F927F928F929F92AF920C
:100CA000BF92CF92DF92EF92FF921F93CF93DF9389
:100CB000EC016A017B01722EAB019601CB01B601FA
:100CC0000E941A0F68E371E0811126C046015701A6
:100CD000E894B7F82FEF3FEF4FE75FE7C501B401A6
:100CE0000E941A0F81110CC02FEF3FEF4FE75FE713
:100CF000C501B4010E94490D6CE371E0181664F05F
:100D00002FEF3FEF4FE75FE4C701B6010E94A80E47
:100D10001816B4F460E471E0CE01DF91CF911F9119
:100D2000FF90EF90DF90CF90BF90AF909F908F900B
:100D30007F906F905F904F903F902F900C94EC05B8
:100D40002FEF3FEF4FE75FECC701B6010E94490D5F
:100D500087FDE0CF20E030E0A901C701B6010E9485
:100D6000490D312C212C87FF0DC0E881F9810190BC
:100D7000F081E02D6DE2CE0109951C01F7FAF094A7
:100D8000F7F8F09410E060E070E080E09FE3711607
:100D900041F020E030E040E251E40E944E0D1F5F40
:100DA000F6CFA70196010E94DD0C2B013C010E94A9
:100DB000C70D4B015C012AE0BC01A401CE010E94D9
:100DC000FB057C01E20CF31C1123E1F1C501B40128
:100DD0000E94F60D9B01AC01C301B2010E94DC0C24
:100DE0004B015C01E881F9810190F081E02D6EE218
:100DF000CE010995E80EF91E115020F120E030E0F7
:100E000040E251E4C501B4010E94AD0E2B013C014A
:100E10000E94C70D4B01B12CA12C2AE0B501A40101
:100E2000CE010E94FB05E80EF91EC501B4010E9427
:100E3000F60D9B01AC01C301B2010E94DC0C4B0119
:100E40005C01DACFC701DF91CF911F91FF90EF9046
:100E5000DF90CF90BF90AF909F908F907F906F90DA
:100E60005F904F903F902F9008950C94EC0585ED86
:100E70008093BC008091050290910602A091070228
:100E8000B09108020796A11DB11D23E0B695A79564
:100E9000979587952A95D1F72091BC0024FD03C032
:100EA000109203020895409105025091060260914C
:100EB000070270910802452B462B472B69F30097D8
:100EC000A105B10541F02AE22A95F1F700C001978A
:100ED000A109B109E1CF809104020C94CB031F92C8
:100EE0000F920FB60F9211242F933F938F939F93DE
:100EF000AF93BF938091340290913502A091360256
:100F0000B091370230912F0223E0230F2D3758F58F
:100F10000196A11DB11D20932F028093340290935E
:100F20003502A0933602B09337028091300290913F
:100F30003102A0913202B09133020196A11DB11D80
:100F40008093300290933102A0933202B093330227
:100F5000BF91AF919F918F913F912F910F900FBEB5
:100F60000F901F90189526E8230F0296A11DB11D22
:100F7000D2CF1F920F920FB60F9211242F933F934F
:100F80004F935F936F937F938F939F93AF93BF9391
:100F9000EF93FF9388E392E00E943B03FF91EF9170
:100FA000BF91AF919F918F917F916F915F914F9181
:100FB0003F912F910F900FBE0F901F9018951F9289
:100FC0000F920FB60F9211242F938F939F93EF934D
:100FD000FF93E0914802F09149028081E0914E0236
:100FE000F0914F0282FD1BC09081809151028F5F72
:100FF0008F7320915202821741F0E0915102F0E08C
:10100000E85CFD4F958F80935102FF91EF919F9186
:101010008F912F910F900FBE0F901F901895808188
:10102000F4CF1F920F920FB60F9211242F933F937C
:101030004F935F936F937F938F939F93AF93BF93E0
:10104000EF93FF938091B900887F803609F44AC0FE
:10105000F0F5883209F4A5C018F5803109F499C07B
:10106000B8F4882309F4F5C0883009F492C0FF91E0
:10107000EF91BF91AF919F918F917F916F915F9110
:101080004F913F912F910F900FBE0F901F90189589
:10109000883109F486C0803251F78093010214C070
:1010A000803409F49BC040F48033B9F38833F9F6F7
:1010B0008093010285ECAEC0803509F483C0883589
:1010C00009F494C0883499F60E943707D0CF883944
:1010D00009F48AC038F5883729F050F4883611F0C1
:1010E000803729F683E0809303021092DC0155C01B
:1010F000883809F479C0803919F0803809F0B7CF01
:101100008091DC01803208F06FC0E091DC0181E069
:101110008E0F8093DC018091BB00F0E0E454FE4F21
:1011200080833BC0803B39F0D0F4803A09F477C02B
:10113000883A09F09CCF84E0809303021092BB01AF
:101140001092BA01F0E0E0E009958091BA018111B6
:101150000FC081E08093BA0110929A0109C0803CCF
:1011600009F4A8CF883C09F4A5CF883B09F07FCFCC
:10117000E091BB0181E08E0F8093BB01F0E0E65669
:10118000FE4F80818093BB009091BB018091BA019A
:1011900029C08091DE018093BB0085EC8093BC0068
:1011A00066CF909100028091FF01981758F5E09169
:1011B000000281E08E0F80930002F0E0E152FE4FCA
:1011C0008081E9CFE091000281E08E0F80930002E0
:1011D0008091BB00F0E0E152FE4F808390910002CD
:1011E0008091FF019817C8F285E8D8CFE0910002FE
:1011F00081E08E0F809300028091BB00F0E0E1520D
:10120000FE4F80838091020281115ECF81E0809346
:10121000DD0184EA8093BC001092030228CF85ECA4
:101220008093BC00109203028091DC01803230F484
:10123000E091DC01F0E0E454FE4F10826091DC01AB
:1012400070E08CEB91E0F0E0E0E009951092DC01B9
:101250000ECF1092010238CFCF92DF92EF92FF9221
:101260000F931F93E82FF92F05C001501109210991
:10127000310961F1908196239417B9F305C00150AB
:1012800011092109310911F1908196239413F7CFA7
:10129000C12CD12CE12CF12C0AC08FEFC81AD80A2E
:1012A000E80AF80A0C151D052E053F0579F0808126
:1012B0008623841791F36C2D7D2D8E2D9F2D1F91EC
:1012C0000F91FF90EF90DF90CF90089560E070E075
:1012D00080E090E01F910F91FF90EF90DF90CF9012
:1012E0000895E8E3F2E01382128288EE93E0A0E032
:1012F000B0E084839583A683B7832CE031E031830B
:10130000208325EC30E03587248724EC30E03787D4
:10131000268720EC30E0318B208B21EC30E0338BC2
:10132000228B22EC30E0358B248B26EC30E0378B9F
:10133000268B118E128E138E148EE5EDF2E0138241
:10134000128284839583A683B7838EE191E0918393
:101350008083ADEEB2E082E015968C93159796E10E
:1013600016969C931697E0EBF0E0E4911796EC93B9
:101370001797ECE9F0E0E4911896EC93189740E8A1
:101380005EE360E070E01D964D935D936D937C93FA
:101390005097E1EEF2E01382128220E331E03183D4
:1013A000208397E2948390E1918782871386089542
:1013B000789484B5826084BD84B5816084BD85B530
:1013C000826085BD85B5816085BD80916E0081603C
:1013D00080936E00109281008091810082608093E2
:1013E00081008091810081608093810080918000E4
:1013F0008160809380008091B10084608093B1000F
:101400008091B00081608093B00080917A00846008
:1014100080937A0080917A00826080937A00809134
:101420007A00816080937A0080917A00806880934E
:101430007A001092C10061E089E00E941B0160E027
:1014400088E00E941B0160E087E00E941B0161E0D0
:1014500083E00E941B0161E084E00E941B0162E0C6
:101460008091F2020E941B012FB7F8948091340200
:1014700090913502A0913602B09137022FBF805D66
:101480009740A109B1098093F6029093F702A093C7
:10149000F802B093F90287E38093FF028091E6029D
:1014A00088608093E60212E01093E90262E370E044
:1014B00080E090E00E947C016091EC0281EE92E07D
:1014C0000E949B0468EE73E080E090E00E947C0143
:1014D00060E381EE92E00E948505CBE4D6E4CE0184
:1014E0000197F1F760E381EE92E00E948505219774
:1014F000F1F760E381EE92E00E94850583E592E0DA
:101500000197F1F760E281EE92E00E94850560911B
:10151000E602606240E081EE92E00E949E0584E077
:101520008093E70240E06CE081EE92E00E949E052D
:1015300040E061E081EE92E00E949E05CBE3DFE1B6
:10154000CE010197F1F71093E80240E066E081EEEA
:1015500092E00E949E0540E062E081EE92E00E94EF
:101560009E052197F1F788E08093EC0260E081EE20
:1015700092E00E949B04E0914802F091490210839E
:10158000E0914402F09145021082E0914602F09110
:1015900047028FEC808310925002E0914C02F09150
:1015A0004D0286E08083E0914A02F0914B028081F7
:1015B00080618083E0914A02F0914B0280818860D3
:1015C0008083E0914A02F0914B02808180688083A1
:1015D000E0914A02F0914B0280818F7D80835BE332
:1015E000252E5FE1352E60E089E00E94ED0083E06A
:1015F00090E00197F1F761E089E00E94ED0083E25D
:1016000090E00197F1F760E089E00E94ED00E6EBE1
:10161000F0E06491E2EAF0E08491E82FF0E0EE0F70
:10162000FF1FE057FF4F8591949100E412E42FE0F3
:1016300030E0462F0E942C09611571058105910546
:1016400029F06F5F7F4F8F4F9F4F9F700E94F80D63
:1016500026E933E44BE05DE30E94AD0E20E030E08C
:1016600040E05FE30E94AD0E0E94C00D70932E0219
:1016700060932D02E3E8F0E08491E5EBF0E0C491A3
:10168000E1EAF0E0D491DD2331F181110E94C40040
:10169000ED2FF0E0EE0FFF1FE057FF4FA591B49143
:1016A0008C91C82391E080E009F490E0C92FD82FF5
:1016B0000E94AE01882341F08091F3028C3009F43E
:1016C00069C060F48B3039F1C12CD12C90ECE92E3B
:1016D0009FE7F92E4AC0D0E0C0E0EACF85518230C2
:1016E00098F71091EF02612F70E0762F662766273A
:1016F0007F778091F002682B90E080E00E94F60DE9
:101700002DEC3CEC4CEC5DE30E94AD0E6B017C01DA
:1017100017FF2BC05FC06091EF0270E090E080E0A7
:101720000E94F60D6B017C011091F00217FF0AC0B8
:10173000AC019B0160E070E080E89FEB0E94DC0C54
:101740006B017C011F70612F70E090E080E00E94CF
:10175000F80D2DEC3CEC4CEC5DE30E94AD0EA701C6
:1017600096010E94DD0C6B017C010E94AE01882372
:1017700051F08091F3028B3030F08D3080F1855143
:10178000823008F4FBC0412C512C80EC682E8FE78E
:10179000782E43C0B090EF026B2D70E090E080E0B7
:1017A0000E94F60D6B017C016091F0026F7070E099
:1017B00090E080E00E94F80D2DEC3CEC4CEC5DE3F9
:1017C0000E94AD0EA70196010E94DD0C6B017C0109
:1017D000B7FECBCFF7FAF094F7F8F094C6CF60914C
:1017E000EE0270E090E080E00E94F80D2DEC3CEC01
:1017F0004CEC5DE30E94AD0E4B015C016091ED028B
:1018000070E090E080E00E94F80D9B01AC01C50102
:10181000B4010E94DD0C2B013C0140E061E081EE4F
:1018200092E00E949E05C1010197F1F780E00E94BD
:10183000B5056DE471E081EE92E00E94350721E08C
:10184000B701A60181EE92E00E94470660E571E0D3
:1018500081EE92E00E94350720E0B301A20181EE03
:1018600092E00E94470665E571E081EE92E00E94F9
:10187000350781E00E94B50580912D0290912E02DE
:1018800001978436910508F08BC0C130D10509F06D
:1018900087C067E571E081EE92E00E94350761E064
:1018A00083E00E94ED0061E084E00E94ED006FE6BD
:1018B00071E088E392E00E94350780902D029090BD
:1018C0002E02092C000CAA08BB082AE0B501A401CD
:1018D000B7FE0DC06DE288E392E00E945D034427ED
:1018E0005527BA01481959096A097B092AE088E392
:1018F00092E00E94FB0567E771E088E392E00E94B6
:10190000350764E471E0219711F067E471E088E342
:1019100092E00E94350765E871E088E392E00E945A
:10192000350722E0B701A60188E392E00E9447064E
:101930006CE871E088E392E00E94350722E0B30191
:10194000A20188E392E00E94470665E971E088E31E
:1019500092E00E94EC0560ED77E080E090E00E946C
:101960007C0180E090E0892B09F43DCE0E942703A2
:10197000882309F434CE0E94000031CE6091ED023C
:101980007091EE0276276727762790E080E00E942C
:10199000F60D2DEC3CEC4CEC5DE30E94AD0E3BCF24
:1019A00063E671E081EE92E00E94350760E083E03B
:1019B0000E94ED0060E078CF5058BB27AA270E9414
:1019C000F40C0C946E0E0E94600E38F00E94670EAC
:1019D00020F039F49F3F19F426F40C945D0E0EF4B8
:1019E000E095E7FB0C94570EE92F0E947F0E58F309
:1019F000BA17620773078407950720F079F4A6F5F4
:101A00000C94A10E0EF4E0950B2EBA2FA02D0B0115
:101A1000B90190010C01CA01A0011124FF27591B33
:101A200099F0593F50F4503E68F11A16F040A22F39
:101A3000232F342F4427585FF3CF469537952795AA
:101A4000A795F0405395C9F77EF41F16BA0B620BA9
:101A5000730B840BBAF09150A1F0FF0FBB1F661FF0
:101A6000771F881FC2F70EC0BA0F621F731F841F33
:101A700048F4879577956795B795F7959E3F08F059
:101A8000B0CF9395880F08F09927EE0F979587951B
:101A900008950E94330E08F481E008950E94620DBB
:101AA0000C946E0E0E94670E58F00E94600E40F07B
:101AB00029F45F3F29F00C94570E51110C94A20E9B
:101AC0000C945D0E0E947F0E68F39923B1F35523A9
:101AD00091F3951B550BBB27AA2762177307840741
:101AE00038F09F5F5F4F220F331F441FAA1FA9F3D7
:101AF00035D00E2E3AF0E0E832D091505040E695C5
:101B0000001CCAF72BD0FE2F29D0660F771F881F25
:101B1000BB1F261737074807AB07B0E809F0BB0B18
:101B2000802DBF01FF2793585F4F3AF09E3F51052C
:101B300078F00C94570E0C94A20E5F3FE4F3983E9D
:101B4000D4F3869577956795B795F7959F5FC9F715
:101B5000880F911D9695879597F90895E1E0660F96
:101B6000771F881FBB1F621773078407BA0720F00F
:101B7000621B730B840BBA0BEE1F88F7E095089578
:101B80000E94C70D6894B1110C94A20E08950E9492
:101B9000870E88F09F5798F0B92F9927B751B0F06A
:101BA000E1F0660F771F881F991F1AF0BA95C9F7E1
:101BB00014C0B13091F00E94A10EB1E008950C94D0
:101BC000A10E672F782F8827B85F39F0B93FCCF383
:101BD000869577956795B395D9F73EF4909580955E
:101BE000709561957F4F8F4F9F4F0895E89409C07E
:101BF00097FB3EF490958095709561957F4F8F4F40
:101C00009F4F9923A9F0F92F96E9BB279395F69555
:101C1000879577956795B795F111F8CFFAF4BB0FD3
:101C200011F460FF1BC06F5F7F4F8F4F9F4F16C037
:101C3000882311F096E911C0772321F09EE8872FC1
:101C4000762F05C0662371F096E8862F70E060E07D
:101C50002AF09A95660F771F881FDAF7880F9695F6
:101C6000879597F90895990F0008550FAA0BE0E89A
:101C7000FEEF16161706E807F907C0F0121613064E
:101C8000E407F50798F0621B730B840B950B39F48E
:101C90000A2661F0232B242B252B21F408950A26F4
:101CA00009F4A140A6958FEF811D811D089597F934
:101CB0009F6780E870E060E008959FEF80EC0895F2
:101CC00000240A941616170618060906089500241B
:101CD0000A9412161306140605060895092E039495
:101CE000000C11F4882352F0BB0F40F4BF2B11F409
:101CF00060FF04C06F5F7F4F8F4F9F4F089557FD68
:101D00009058440F551F59F05F3F71F04795880F69
:101D100097FB991F61F09F3F79F087950895121600
:101D200013061406551FF2CF4695F1DF08C01616AC
:101D300017061806991FF1CF86957105610508945D
:101D40000895E894BB2766277727CB0197F9089574
:101D50000E94330E08F48FEF08950E94C00E0C9479
:101D60006E0E0E94600E38F00E94670E20F09523E0
:101D700011F00C94570E0C945D0E11240C94A20ECD
:101D80000E947F0E70F3959FC1F3950F50E0551F91
:101D9000629FF001729FBB27F00DB11D639FAA27C0
:101DA000F00DB11DAA1F649F6627B00DA11D661F0F
:101DB000829F2227B00DA11D621F739FB00DA11D30
:101DC000621F839FA00D611D221F749F3327A00DEA
:101DD000611D231F849F600D211D822F762F6A2F86
:101DE00011249F5750409AF0F1F088234AF0EE0FEB
:101DF000FF1FBB1F661F771F881F91505040A9F718
:101E00009E3F510580F00C94570E0C94A20E5F3F3C
:101E1000E4F3983ED4F3869577956795B795F79553
:101E2000E7959F5FC1F7FE2B880F911D96958795CB
:101E300097F908950E94330E880B990B0895A1E23B
:101E40001A2EAA1BBB1BFD010DC0AA1FBB1FEE1F34
:101E5000FF1FA217B307E407F50720F0A21BB30B7F
:101E6000E40BF50B661F771F881F991F1A9469F7FB
:101E700060957095809590959B01AC01BD01CF0157
:101E80000895EE0FFF1F0590F491E02D0994F8944A
:021E9000FFCF82
:101E92000000400014005400000000005D03BD0279
:101EA200EA02AA031B03F9020D03000000006C04FE
:101EB2003F04820531043804350432040000000076
:101EC200E605BD028205CA036E616E00696E660098
:101ED2006F766600594100544944414B00543A0020
:101EE2004320483A0025005374617475733A204FB9
:101EF2004E20005374617475733A204F4646004A6F
:101F02006172616B3A200020636D207C2047656C12
:101F120061703A2000207C20543A20002043207C2B
:081F220020483A20000D0A00DE
:00000001FF
